:020000040800F2
:10000000189300200D0200082F0C0008BB0B0008FD
:100010002D0C000881030008150D000800000000E9
:10002000000000000000000000000000310C00088B
:10003000830300080000000027030008330C0008B9
:1000400027020008270200082702000827020008EC
:1000500027020008270200082702000827020008DC
:1000600027020008270200082702000827020008CC
:1000700027020008270200082702000827020008BC
:1000800027020008270200082702000827020008AC
:10009000270200082702000827020008270200089C
:1000A000270200082702000827020008270200088C
:1000B000270200082702000827020008270200087C
:1000C000270200082702000827020008270200086C
:1000D000270200082702000827020008270200085C
:1000E000270200082702000827020008270200084C
:1000F000270200082702000827020008270200083C
:10010000270200082702000827020008270200082B
:10011000270200082702000827020008270200081B
:10012000270200082702000827020008270200080B
:1001300027020008270200082702000827020008FB
:1001400027020008270200082702000827020008EB
:1001500027020008270200082702000827020008DB
:1001600027020008270200082702000827020008CB
:1001700027020008270200082702000800000000EC
:1001800027020008270200082702000827020008AB
:10019000270200082702000827020008270200089B
:1001A000270200082702000827020008270200088B
:1001B000270200082702000827020008270200087B
:1001C000270200082702000800000000270200089C
:1001D000270200082702000827020008270200085B
:1001E000270200082702000827020008270200084B
:1001F0002702000827020008DFF80CD000F07AF888
:1002000000480047590D0008189300200648804711
:1002100006480047FEE7FEE7FEE7FEE7FEE7FEE7EB
:10022000FEE7FEE7FEE7FEE7C10C0008F901000863
:100230002DE9F05F0546002092469B46884606461B
:10024000814640241BE0284641464746224600F0AE
:1002500041F853465A46C01A914110D311461846E8
:10026000224600F028F82D1A67EB01084F46224677
:100270000120002100F01FF817EB00094E41201E5D
:10028000A4F10104DFDC484631462A464346BDE876
:10029000F09FD2B201E000F8012B491EFBD270475B
:1002A0000022F6E710B513460A4604461946FFF742
:1002B000F0FF204610BD202A04DB203A00FA02F1AC
:1002C000002070479140C2F1200320FA03F3194344
:1002D00090407047202A04DB203A21FA02F00021E6
:1002E000704721FA02F3D040C2F120029140084346
:1002F00019467047064C074D06E0E06840F00103E0
:1003000094E8070098471034AC42F6D3FFF778FF23
:10031000E813000808140008EFF3108072B6704765
:1003200080F310887047EFF3098020B120E9F00FC7
:100330000F49096808600E480E490A680260106893
:10034000B0E8F00F80F309884EF0040E70470A48B9
:100350004FF0805101607047002080F30988074802
:100360004FF0FF01017004484FF080510160704769
:100370001C0000202000002004ED00E022ED00E041
:10038000FEE770472DE9F84FDFF89CE100224FF0BF
:1003900001084FF0030B4FF00F0A00BF0B6808FA7B
:1003A00002F42340A34271D14D68022D01D0122DD9
:1003B0000FD1D5080E69570700EB8505A9462D6AB0
:1003C000FF0E0AFA07FCBE4025EA0C052E43C9F8C9
:1003D00020600F79550006680BFA05FC07F003074B
:1003E00026EA0C06AF40374307604E68012E05D061
:1003F000022E03D0112E01D0122E0ED18668CF68A6
:1004000026EA0C06AF403743876046680F79A6435B
:10041000C7F30017974037434760C4688E6824EAE3
:100420000C04AE402643C6604C68E40075D53F4CD2
:10043000256845F480452560246822F00306950769
:1004400004F4804400943A4C2D0F2644D6F8084812
:10045000DFF8E0C00AFA05F7604524EA070401D195
:1004600000272EE0344FB84201D1012729E0334F55
:10047000B84201D1022724E0314FB84201D103270D
:100480001FE0304FB84202D104271AE045E02E4F5A
:10049000B84201D1052714E02C4FB84201D10627FC
:1004A0000FE02B4FB84201D107270AE0294FB8428D
:1004B00001D1082705E0284FB84201D1092700E003
:1004C0000A27AF4027437546C6F808784E68DEF81D
:1004D0000040F60324EA030400D51C43124E2C60AE
:1004E000361D4D683468AD0324EA030400D51C436F
:1004F0000D4F346008374D683C68ED0224EA030470
:1005000000D51C43084D3C600C354E682C68B60283
:1005100024EA030400D51C432C60521C102AFFF46B
:100520003DAFBDE8F88F0000003C01404438024078
:100530000030014000000240000402400008024078
:10054000000C02400010024000140240001802405B
:10055000001C024000200240002402400AB18161D8
:1005600070470904FBE700000148806870470000FD
:1005700004000020032010B500F060F8002000F017
:1005800005F800F023F8002010BD000070B50D4DF7
:1005900004464FF47A700C4A29781268B0FBF1F0E7
:1005A000B2FBF0F000F0F6FA48B9102C07D20022A6
:1005B0002146501E00F022F800206C6070BD012022
:1005C00070BD000004000020100000200A4808B59B
:1005D000016841F080510160006800F08050009097
:1005E0000548001D016841F480410160006800F485
:1005F0008040009008BD0000403802400E4BF0B42F
:100600001B680D46C3F30223C3F10706042E00D96D
:100610000426191D072901D2002300E0DB1E012456
:1006200004FA06F19C40491E2940641E994014407A
:100630002143F0BC00F06FBB0CED00E0064900F078
:10064000070210B54FF6FF040868044B204040EA4B
:1006500002201843086010BD0CED00E00000FA0510
:100660001848F8B5016841F0805101600068164CE7
:1006700000F080500090206840F480302060FFF748
:1006800073FF4FF47A76054605E000BFFFF76CFF75
:10069000401BB0420FD86068C003F7D5206840F413
:1006A00000302060FFF760FF054606E0FFF75CFFC3
:1006B000401BB04201D90320F8BD60688003F5D526
:1006C0000020F8BD40380240007000402DE9F0479E
:1006D00005000F4663D0444E306800F00F00B8426A
:1006E00009D2306820F00F0038433060306800F0E5
:1006F0000F00B84253D128683C4C810712D54007FF
:1007000003D5206840F4E05020602878000703D526
:10071000206840F460402060A968206820F0F00064
:10072000084320602878C0072AD030496868083913
:10073000012810D00968022810D0890700292EDA74
:10074000216821F0030101432160FFF70DFF80467E
:1007500041F288390DE009688903EFE78901EDE787
:10076000FFF702FFA0EB0801494502D90320BDE8CD
:10077000F0876868216801F00C01B1EB800FEFD1C0
:10078000306800F00F00B8420BD9306820F00F003D
:1007900038433060306800F00F00B84201D00120CB
:1007A000E5E72878400705D5E968206820F4E0509F
:1007B000084320602878000706D52869216821F4BD
:1007C000604141EAC000206000F016F82168084A44
:1007D000C1F30311515CC840064908600020FFF7CF
:1007E000D5FE0020C3E70000003C0240083802406C
:1007F000D812000810000020154910B515480968E6
:1008000011F00C0213D04110042A0FD0082A0ED187
:100810000F4C241F2268236802F03F025B0207D5B9
:100820002068C0F38810A0FB010106E0084610BD57
:100830002168C1F38811A1FB00010023FFF7F8FC38
:100840002168C1F30141491C4900B0FBF1F010BD22
:10085000083802400024F4002DE9F84F05004FF05D
:1008600000076ED02878DFF82093A9F1040AC007AA
:10087000AAF104044CD0D9F800104846C1F3810114
:10088000012908D00068C0F3810002280AD1DAF8F3
:100890000000400206D52068800339D5686800282A
:1008A000DFD035E06868B0F5803F0BD010B1B0F50F
:1008B000A02F11D0206820F480302060206820F420
:1008C000802002E0206840F480302060686890B1A9
:1008D000FFF74AFE06460AE0206840F480202060C8
:1008E000F0E700BFFFF740FE801B642872D8206845
:1008F0008003F7D50CE0FFF737FE064605E000BFA2
:10090000FFF732FE801B6428F0D820688003F7D4FC
:100910002878800742D5D9F80010484611F00C0F0E
:1009200008D00068C0F3810002280BD1DAF800007B
:10093000400207D42068800718D5E868012800D154
:1009400014E01EE1E8680028206817D040F001009C
:100950002060FFF709FE064605E000BFFFF704FE32
:10096000801B0228C2D820688007F7D52869216833
:1009700021F0F80141EAC00020600FE020F0010002
:100980002060FFF7F1FD064605E000BFFFF7ECFD34
:10099000801B02281ED820688007F7D4287800071B
:1009A00029D5794869696C3000298046016812D0E0
:1009B00041F001010160FFF7D7FD064605E000BFE9
:1009C000FFF7D2FD801B022804D8D8F8000080076A
:1009D000F6D510E089E021F001010160FFF7C4FDC8
:1009E000064604E0FFF7C0FD801B02287DD8D8F83A
:1009F00000008007F6D4287840076BD5DFF888819F
:100A000008F13808D8F80000C0000BD4D8F800105E
:100A100041F08051C8F80010D8F80000012700F01C
:100A20008050009059480168C90512D40168834676
:100A300041F480710160FFF797FD064605E000BFB5
:100A4000FFF792FD801B64284FD8DBF80000C0053B
:100A5000F6D54D4EA868683601280AD008B1052899
:100A600011D0306820F001003060306820F00400C0
:100A700002E0306840F001003060A868A0B1FFF7E4
:100A800073FD83460CE0306840F004003060F0E70E
:100A9000FFF76AFDA0EB0B0141F28830814268D874
:100AA00030688007F4D50EE0FFF75EFD834607E06F
:100AB000FFF75AFDA0EB0B0141F28830814258D874
:100AC00030688007F4D42FB1D8F8001021F080519D
:100AD000C8F80010A869E0B3D9F80010C1F381018B
:100AE00002294ED00228206800E042E020F0807009
:100AF000206003D0FFF738FD05463DE0FFF734FDE9
:100B0000064604E0FFF730FD801B022831D820683C
:100B10008001F7D4D5E90921DFF874C0D5E90706CB
:100B200095F830304F0895F82C1030430CEB074502
:100B300045EA8212104340EA016040EA0370CAF8B5
:100B40000000206840F080702060FFF70DFD054632
:100B500005E014E0FFF708FD401B022809D82068D3
:100B60008001F7D50BE000BFFFF7FEFC401B022819
:100B700002D90320BDE8F88F20688001F4D400205A
:100B8000F8E70120F6E70000083802400070004056
:100B90000000FFFF401EB0F1807F10B501D301209F
:100BA00010BD4FF0E02460610F21601700F0B3F832
:100BB0000020A0610721216110BDFEE730B587B09C
:100BC00014216846FFF76CFB1648016841F080016C
:100BD0000160016801F080010591016841F00201A6
:100BE0000160016801F002010591016841F0010115
:100BF0000160006844F281040B4D002200F0010006
:100C0000214605902846FFF7A9FC01AB009401207E
:100C10000021032283E8070069462846FFF7B2FB5C
:100C200007B030BD3038024000040240FEE7704794
:100C3000704700F0E5B8000030B593B03421684645
:100C4000FFF72EFB14210DA8FFF72AFB1A480168B5
:100C500041F080510160006800F080501290174808
:100C6000016841F44041016000680224042300F45B
:100C70004040129001200893D82582050104CDE957
:100C80000642CDE909540B94CDE900016846FFF70F
:100C9000E3FDFFF7E5FC0FAD0021E3024FF4A052A6
:100CA00085E80E000F20CDE90D0407210DA8FFF700
:100CB0000DFD13B030BD0000403802400070004010
:100CC000104A30B51048146800210F4B44F47004EA
:100CD0001460083305680D4A0D4C45F001050560A8
:100CE00019600368051D1340074A03600C322C602D
:100CF0000568E305034C25F480250560803C116000
:100D0000236030BD88ED00E000380240FFFFF6FEB2
:100D100010300024FEE7090700284FEA116104DBC8
:100D200000F1E02080F80014704700F00F0000F19F
:100D3000E02080F8141D704702E008C8121F08C1A7
:100D4000002AFAD170477047002001E001C1121F4C
:100D5000002AFBD17047000010B5FFF70BFCFFF72E
:100D60006BFFFFF72BFF094800F03AF800F04CF951
:100D700000F0D8F900F016F900F0A2F800F04AF9F6
:100D800003490860FFF7E8FA002010BD18000020B2
:100D9000200000200068114910F0FF0F03D051FA25
:100DA00080F00078704710F47F4F04D0C0F3072024
:100DB000085C08300DE010F47F0F04D0C0F307404A
:100DC000085C103005E0020E05D001EB10600078E1
:100DD0001830C0B27047202070470000E8120008A9
:100DE000002101607047012302688B409A43026032
:100DF0007047012302688B401A430260704700006D
:100E00002DE9F041FFF788FA1C4F06467C6810E098
:100E1000A4F11405E868401EE86009D1E86B20B130
:100E200001222846002100F02FF8284600F0A0F902
:100E30006468BC42ECD1124C2168486A401E48628A
:100E400014D1087C1C310F4D00EB400005EB8000F5
:100E500000F09BF82168087C1C3100EB400005EB9A
:100E6000800000F086F821680A2048623046FFF7CB
:100E700057FABDE8F04100F065B900000C530020BE
:100E80001C0000208C5100202DE9F04116460F4631
:100E90000446FFF741FA0546E06B04F11C01001D12
:100EA00000F073F8A06A0021666420F47F00A0625D
:100EB000C4E90F172846BDE8F041FFF731BAFEE755
:100EC0001CB54FF480541B481B4900234FF01132CE
:100ED000CDE90004A0F5907000F0AEF817480123AA
:100EE000CDE9000413484FF022321549D83800F0FC
:100EF000A3F814480223CDE900040E484FF0333222
:100F00001149903800F098F810480323CDE9000407
:100F100008484FF044320E49483800F08DF80D482B
:100F20001F23CDE900040C490022483800F084F862
:100F30001CBD0000440100200912000844110020DB
:100F400045120008442100207D1200084431002091
:100F5000BD1200088C410020BF0E000882680021ED
:100F600002B141680846704740600021006081601E
:100F70007047026852684A6002680A6002685160FD
:100F800001608168491C81607047D1E9002353608A
:100F9000D1E900210A608168491E81607047406084
:100FA000006070470149002008707047140000205D
:100FB00009494FF47A720B684FF0E0215843B0FBB7
:100FC000F2F0401E4861054AF02082F8140D00201E
:100FD000072288610A617047100000200FE000E0DE
:100FE00070B50446FFF798F90546064821460068A3
:100FF00000F0E0F800F0A6F82846BDE87040FFF7E2
:101000008FB900001C0000200148FFF7ADBF0000B1
:101010000C530020064810B5FFF7BCFE054900EB55
:10102000400001EB8000FFF799FF1C3810BD000065
:10103000180000208C5100202DE9F04704461D4681
:1010400092468946DDE9086730463946C4E90167BA
:10105000FFF726F927F003004FF014083044A0F101
:101060000C0C4FF0807140F8041C122140F8089CD1
:101070001038CCF80080061FA0F1080C4FF00208D1
:101080000160032737600C38CCF80080061F321F40
:101090004FF0100C0121016040F804AC101F112723
:1010A0001760011F4FF0090842F804CC0A1F40F8EE
:1010B000048C101F08264FF0060C011F166007272E
:1010C00007600A1F40F804CC101F4FF005080426E3
:1010D000C2F80080002306600A21E360206004F16A
:1010E00014002574C4E90913E3622363636384F87D
:1010F0003830FFF754FF04F11C000446FFF74FFFA0
:10110000064905EB450001EB80002146FFF731FF62
:1011100029460348BDE8F047FFF76BBE8C5100201D
:101120001800002070B5064D5FF0000404EB440089
:1011300005EB8000FFF718FF641C202CF6D370BD70
:101140008C51002070B5FFF7E7F8084C0546207871
:1011500038B9FFF75FFFA168814202D0E060FFF776
:10116000F6F82846BDE87040FFF7DAB81400002012
:1011700010B50446007C0C4900EB400001EB8000F8
:1011800004F11C01FFF7F5FE217C0848FFF731FE52
:10119000A06A04F1140120F00200A062BDE8104032
:1011A0000348FFF7F2BE00008C5100201800002019
:1011B0000C53002070B50446007C104D0E4604F11F
:1011C0001C0100EB400005EB8000FFF7DEFE217CF8
:1011D00001EB410005EB8000806810B90848FFF77B
:1011E00002FEA06A04F11401E66040F00200A06271
:1011F000BDE870400348FFF7BCBE00008C510020E2
:10120000180000200C5300200A20FFF7D1FE0B4DE0
:1012100000260B4C0127012228461146FFF79EF9B4
:1012200078202770FFF7DCFE002228460121FFF717
:1012300095F978202670FFF7D3FEECE70004024012
:10124000000000200B4D00260B4C012701222846F0
:101250008021FFF783F928206770FFF7C1FE002285
:1012600028468021FFF77AF928206670FFF7B8FE3C
:10127000ECE7000000040240000000200D4E0027B3
:101280000D4C4FF480454FF00108294601223046AD
:10129000FFF764F90A2084F80280FFF7A1FE00221C
:1012A00029463046FFF75AF90A20A770FFF798FE43
:1012B000EBE700000004024000000020054C002580
:1012C00001260120E670FFF78BFE0120E570FFF795
:1012D00087FEF6E70000002000000000000000008C
:1012E0000102030406070809FF00010002000100D3
:1012F00003000100020001000400010002000100DF
:1013000003000100020001000500010002000100CD
:1013100003000100020001000400010002000100BE
:1013200003000100020001000600010002000100AC
:10133000030001000200010004000100020001009E
:10134000030001000200010005000100020001008D
:10135000030001000200010004000100020001007E
:10136000030001000200010007000100020001006B
:10137000030001000200010004000100020001005E
:10138000030001000200010005000100020001004D
:10139000030001000200010004000100020001003E
:1013A000030001000200010006000100020001002C
:1013B000030001000200010004000100020001001E
:1013C000030001000200010005000100020001000D
:1013D00003000100020001000400010002000100FE
:1013E00003000100020001000814000800000020B2
:1013F00024000000380D00082C14000824000020F0
:10140000F4920000480D00080000000001000000F8
:1014100010000000000000000024F40000000000A4
:0C142000000000000000000000000000C0
:04000005080001F9F5
:00000001FF
